{
    "contractName": "SimpleStorage",
    "abi": [
        {
            "inputs": [
                {
                    "internalType": "uint256",
                    "name": "initValue",
                    "type": "uint256"
                }
            ],
            "stateMutability": "nonpayable",
            "type": "constructor"
        },
        {
            "inputs": [
                {
                    "internalType": "uint256",
                    "name": "a",
                    "type": "uint256"
                },
                {
                    "internalType": "uint256",
                    "name": "b",
                    "type": "uint256"
                }
            ],
            "name": "add",
            "outputs": [
                {
                    "internalType": "uint256",
                    "name": "",
                    "type": "uint256"
                }
            ],
            "stateMutability": "pure",
            "type": "function"
        },
        {
            "inputs": [],
            "name": "cnt",
            "outputs": [
                {
                    "internalType": "int256",
                    "name": "",
                    "type": "int256"
                }
            ],
            "stateMutability": "view",
            "type": "function"
        },
        {
            "inputs": [],
            "name": "decreaseCnt",
            "outputs": [],
            "stateMutability": "nonpayable",
            "type": "function"
        },
        {
            "inputs": [],
            "name": "getCnt",
            "outputs": [
                {
                    "internalType": "int256",
                    "name": "",
                    "type": "int256"
                }
            ],
            "stateMutability": "view",
            "type": "function"
        },
        {
            "inputs": [],
            "name": "getOwner",
            "outputs": [
                {
                    "internalType": "address",
                    "name": "",
                    "type": "address"
                }
            ],
            "stateMutability": "view",
            "type": "function"
        },
        {
            "inputs": [],
            "name": "increaseCnt",
            "outputs": [],
            "stateMutability": "nonpayable",
            "type": "function"
        },
        {
            "inputs": [
                {
                    "internalType": "uint256",
                    "name": "a",
                    "type": "uint256"
                },
                {
                    "internalType": "uint256",
                    "name": "b",
                    "type": "uint256"
                }
            ],
            "name": "mul",
            "outputs": [
                {
                    "internalType": "uint256",
                    "name": "",
                    "type": "uint256"
                }
            ],
            "stateMutability": "pure",
            "type": "function"
        },
        {
            "inputs": [],
            "name": "num",
            "outputs": [
                {
                    "internalType": "uint256",
                    "name": "",
                    "type": "uint256"
                }
            ],
            "stateMutability": "view",
            "type": "function"
        },
        {
            "inputs": [],
            "name": "ownerAddress",
            "outputs": [
                {
                    "internalType": "address",
                    "name": "",
                    "type": "address"
                }
            ],
            "stateMutability": "view",
            "type": "function"
        },
        {
            "inputs": [
                {
                    "internalType": "int256",
                    "name": "number",
                    "type": "int256"
                }
            ],
            "name": "setCnt",
            "outputs": [],
            "stateMutability": "nonpayable",
            "type": "function"
        },
        {
            "inputs": [
                {
                    "internalType": "uint256[]",
                    "name": "data",
                    "type": "uint256[]"
                }
            ],
            "name": "sumArrayCall",
            "outputs": [
                {
                    "internalType": "uint256",
                    "name": "sum",
                    "type": "uint256"
                }
            ],
            "stateMutability": "pure",
            "type": "function"
        },
        {
            "inputs": [
                {
                    "internalType": "uint256[]",
                    "name": "data",
                    "type": "uint256[]"
                }
            ],
            "name": "sumArrayMem",
            "outputs": [
                {
                    "internalType": "uint256",
                    "name": "sum",
                    "type": "uint256"
                }
            ],
            "stateMutability": "pure",
            "type": "function"
        }
    ],
    "bytecode": "608034606357601f61040c38819003918201601f19168301916001600160401b03831184841017606757808492602094604052833981010312606357516001555f8055600280546001600160a01b03191633179055604051610390908161007c8239f35b5f80fd5b634e487b7160e01b5f52604160045260245ffdfe6080806040526004361015610012575f80fd5b5f3560e01c90816309b1812d1461024d575080630df08229146102265780633261ffc1146101a05780634e70b1dc14610183578063771602f7146101625780637816739c1461014a578063893d20e8146101225780638f84aa0914610122578063c8a4ac9c146100f8578063d6d838ad146100dc578063e2ca8097146100dc5763fe28eb15146100a0575f80fd5b346100d8575f3660031901126100d8575f54600160ff1b81146100c4575f19015f55005b634e487b7160e01b5f52601160045260245ffd5b5f80fd5b346100d8575f3660031901126100d85760205f54604051908152f35b346100d85761010636610337565b908181029181830414901517156100c457602090604051908152f35b346100d8575f3660031901126100d8576002546040516001600160a01b039091168152602090f35b346100d85760203660031901126100d8576004355f55005b346100d857602061017b61017536610337565b9061034d565b604051908152f35b346100d8575f3660031901126100d8576020600154604051908152f35b346100d85760203660031901126100d85760043567ffffffffffffffff81116100d857366023820112156100d857806004013567ffffffffffffffff81116100d8573660248260051b840101116100d8575f91825b8284101561021b5761021360019160248660051b850101359061034d565b9301926101f5565b602090604051908152f35b346100d8575f3660031901126100d8575f546001600160ff1b0381146100c4576001015f55005b346100d85760203660031901126100d85760043567ffffffffffffffff81116100d857366023820112156100d857806004013567ffffffffffffffff8111610323578060051b90601f19603f830116840184811067ffffffffffffffff82111761032357604052835260246020840191830101913683116100d857602401905b828210610313575f84815b815183101561021b5760208360051b83010151908160011b91808304600214901517156100c45760019161030b9161034d565b9201916102d8565b81358152602091820191016102cd565b634e487b7160e01b5f52604160045260245ffd5b60409060031901126100d8576004359060243590565b919082018092116100c45756fea2646970667358221220dd8375fa988d24fa9b169ddd73a7a5714f7de0042b65d31426c419218c3d652464736f6c634300081d0033",
    "sourcePath": "c:/Users/GoGo/Desktop/개발 파일/solidity-test/contracts/skky_1.sol",
    "compiler": {
        "name": "solc",
        "version": "0.8.29+commit.ab55807c"
    },
    "functionHashes": {
        "add(uint256,uint256)": "771602f7",
        "cnt()": "d6d838ad",
        "decreaseCnt()": "fe28eb15",
        "getCnt()": "e2ca8097",
        "getOwner()": "893d20e8",
        "increaseCnt()": "0df08229",
        "mul(uint256,uint256)": "c8a4ac9c",
        "num()": "4e70b1dc",
        "ownerAddress()": "8f84aa09",
        "setCnt(int256)": "7816739c",
        "sumArrayCall(uint256[])": "3261ffc1",
        "sumArrayMem(uint256[])": "09b1812d"
    },
    "gasEstimates": {
        "creation": {
            "codeDepositCost": "182400",
            "executionCost": "infinite",
            "totalCost": "infinite"
        },
        "external": {
            "add(uint256,uint256)": "348",
            "cnt()": "2453",
            "decreaseCnt()": "24608",
            "getCnt()": "2475",
            "getOwner()": "2412",
            "increaseCnt()": "24395",
            "mul(uint256,uint256)": "436",
            "num()": "2322",
            "ownerAddress()": "2434",
            "setCnt(int256)": "22348",
            "sumArrayCall(uint256[])": "infinite",
            "sumArrayMem(uint256[])": "infinite"
        }
    }
}